{
  "address": "0x25f068644ef83Daf0d46e9C6a9e0cD12516639c6",
  "abi": [
    {
      "anonymous": false,
      "inputs": [
        {
          "indexed": true,
          "internalType": "uint256",
          "name": "pixelId",
          "type": "uint256"
        },
        {
          "indexed": true,
          "internalType": "address",
          "name": "painter",
          "type": "address"
        },
        {
          "indexed": false,
          "internalType": "uint8",
          "name": "color",
          "type": "uint8"
        }
      ],
      "name": "PixelUpdated",
      "type": "event"
    },
    {
      "anonymous": false,
      "inputs": [
        {
          "indexed": true,
          "internalType": "uint256",
          "name": "pixelId",
          "type": "uint256"
        },
        {
          "indexed": true,
          "internalType": "address",
          "name": "painter",
          "type": "address"
        },
        {
          "indexed": false,
          "internalType": "uint256",
          "name": "blockNumber",
          "type": "uint256"
        }
      ],
      "name": "StateCollision",
      "type": "event"
    },
    {
      "inputs": [],
      "name": "GRID_SIZE",
      "outputs": [
        {
          "internalType": "uint256",
          "name": "",
          "type": "uint256"
        }
      ],
      "stateMutability": "view",
      "type": "function"
    },
    {
      "inputs": [
        {
          "internalType": "uint256",
          "name": "",
          "type": "uint256"
        }
      ],
      "name": "canvas",
      "outputs": [
        {
          "internalType": "uint8",
          "name": "color",
          "type": "uint8"
        },
        {
          "internalType": "uint256",
          "name": "lastUpdateBlock",
          "type": "uint256"
        }
      ],
      "stateMutability": "view",
      "type": "function"
    },
    {
      "inputs": [
        {
          "internalType": "uint256",
          "name": "_x",
          "type": "uint256"
        },
        {
          "internalType": "uint256",
          "name": "_y",
          "type": "uint256"
        },
        {
          "internalType": "uint8",
          "name": "_color",
          "type": "uint8"
        }
      ],
      "name": "drawPixel",
      "outputs": [],
      "stateMutability": "nonpayable",
      "type": "function"
    }
  ],
  "transactionHash": "0xdc80bc58700b7ab59ba635f695a95a058db16ef3b3ec4e918bc5038a00ed0d0c",
  "args": [],
  "numDeployments": 1,
  "solcInputHash": "024c181de1d681f012fee31d687d558d",
  "bytecode": "0x6080604052348015600f57600080fd5b506102ef8061001f6000396000f3fe608060405234801561001057600080fd5b50600436106100415760003560e01c80636c0614a4146100465780637fc4eda814610091578063c548d7a0146100a7575b600080fd5b61007361005436600461021b565b6000602081905290815260409020805460019091015460ff9091169082565b6040805160ff90931683526020830191909152015b60405180910390f35b610099603281565b604051908152602001610088565b6100ba6100b5366004610234565b6100bc565b005b603283106101035760405162461bcd60e51b815260206004820152600f60248201526e58206f7574206f6620626f756e647360881b60448201526064015b60405180910390fd5b603282106101455760405162461bcd60e51b815260206004820152600f60248201526e59206f7574206f6620626f756e647360881b60448201526064016100fa565b600082610153603286610289565b61015d91906102a6565b6000818152602081905260409020600101549091504390036101b557604051438152339082907f3c109f56ec7dc84cd7573e504c7e477660c1669feb7222cb4037df0e2c5b1a539060200160405180910390a36101f0565b60405160ff83168152339082907ff419815e72811c91e21816c3a0d8d51935fa93015ec81a4c9d39865f23c5ece59060200160405180910390a35b6000908152602081905260409020805460ff191660ff92909216919091178155436001909101555050565b60006020828403121561022d57600080fd5b5035919050565b60008060006060848603121561024957600080fd5b8335925060208401359150604084013560ff8116811461026857600080fd5b809150509250925092565b634e487b7160e01b600052601160045260246000fd5b80820281158282048414176102a0576102a0610273565b92915050565b808201808211156102a0576102a061027356fea26469706673582212201f6a98e3a1379364f8057c39806ab7c35fb5962d23a0311c930dfb0ea65a4cdc64736f6c634300081e0033",
  "devdoc": {
    "kind": "dev",
    "methods": {
      "drawPixel(uint256,uint256,uint8)": {
        "params": {
          "_color": "Color index (0-255)",
          "_x": "X coordinate (0-49)",
          "_y": "Y coordinate (0-49)"
        }
      }
    },
    "title": "Canvas",
    "version": 1
  },
  "userdoc": {
    "events": {
      "PixelUpdated(uint256,address,uint8)": {
        "notice": "Emitted when a pixel is drawn with no same-block contention."
      },
      "StateCollision(uint256,address,uint256)": {
        "notice": "Emitted when two transactions touch the same pixel in one block."
      }
    },
    "kind": "user",
    "methods": {
      "canvas(uint256)": {
        "notice": "1D mapping representing the 50x50 grid. pixelId = x*50 + y"
      },
      "drawPixel(uint256,uint256,uint8)": {
        "notice": "Paint a pixel on the canvas."
      }
    },
    "notice": "A collaborative 50x50 pixel canvas that demonstrates Monad's         Optimistic Parallel EVM by detecting same-block state collisions.",
    "version": 1
  },
  "storageLayout": {
    "storage": [
      {
        "astId": 16,
        "contract": "contracts/Canvas.sol:Canvas",
        "label": "canvas",
        "offset": 0,
        "slot": "0",
        "type": "t_mapping(t_uint256,t_struct(Pixel)10_storage)"
      }
    ],
    "types": {
      "t_mapping(t_uint256,t_struct(Pixel)10_storage)": {
        "encoding": "mapping",
        "key": "t_uint256",
        "label": "mapping(uint256 => struct Canvas.Pixel)",
        "numberOfBytes": "32",
        "value": "t_struct(Pixel)10_storage"
      },
      "t_struct(Pixel)10_storage": {
        "encoding": "inplace",
        "label": "struct Canvas.Pixel",
        "members": [
          {
            "astId": 7,
            "contract": "contracts/Canvas.sol:Canvas",
            "label": "color",
            "offset": 0,
            "slot": "0",
            "type": "t_uint8"
          },
          {
            "astId": 9,
            "contract": "contracts/Canvas.sol:Canvas",
            "label": "lastUpdateBlock",
            "offset": 0,
            "slot": "1",
            "type": "t_uint256"
          }
        ],
        "numberOfBytes": "64"
      },
      "t_uint256": {
        "encoding": "inplace",
        "label": "uint256",
        "numberOfBytes": "32"
      },
      "t_uint8": {
        "encoding": "inplace",
        "label": "uint8",
        "numberOfBytes": "1"
      }
    }
  }
}