{
  "address": "0x3c2349772CEb7c1D2a9333A1Dabee13d2F236f63",
  "abi": [
    {
      "anonymous": false,
      "inputs": [
        {
          "indexed": true,
          "internalType": "uint256",
          "name": "pixelId",
          "type": "uint256"
        },
        {
          "indexed": false,
          "internalType": "uint8",
          "name": "color",
          "type": "uint8"
        }
      ],
      "name": "PixelUpdated",
      "type": "event"
    },
    {
      "anonymous": false,
      "inputs": [
        {
          "indexed": true,
          "internalType": "uint256",
          "name": "pixelId",
          "type": "uint256"
        },
        {
          "indexed": false,
          "internalType": "uint256",
          "name": "blockNumber",
          "type": "uint256"
        }
      ],
      "name": "StateCollision",
      "type": "event"
    },
    {
      "inputs": [
        {
          "internalType": "uint256",
          "name": "",
          "type": "uint256"
        }
      ],
      "name": "canvas",
      "outputs": [
        {
          "internalType": "uint8",
          "name": "color",
          "type": "uint8"
        },
        {
          "internalType": "uint256",
          "name": "lastUpdateBlock",
          "type": "uint256"
        }
      ],
      "stateMutability": "view",
      "type": "function"
    },
    {
      "inputs": [
        {
          "internalType": "uint256",
          "name": "_x",
          "type": "uint256"
        },
        {
          "internalType": "uint256",
          "name": "_y",
          "type": "uint256"
        },
        {
          "internalType": "uint8",
          "name": "_color",
          "type": "uint8"
        }
      ],
      "name": "drawPixel",
      "outputs": [],
      "stateMutability": "nonpayable",
      "type": "function"
    }
  ],
  "transactionHash": "0x685535f76e53c34920709e79298e190eb1b42eb90f23543cf2cd21b52b3b4d78",
  "args": [],
  "numDeployments": 1,
  "solcInputHash": "60aff1e90ab4a30474de5e80e8be5648",
  "bytecode": "0x6080604052348015600f57600080fd5b506102ce8061001f6000396000f3fe608060405234801561001057600080fd5b50600436106100365760003560e01c80636c0614a41461003b578063c548d7a014610085575b600080fd5b6100686100493660046101fa565b6000602081905290815260409020805460019091015460ff9091169082565b6040805160ff909316835260208301919091520160405180910390f35b610098610093366004610213565b61009a565b005b606483106100e15760405162461bcd60e51b815260206004820152600f60248201526e58206f7574206f6620626f756e647360881b60448201526064015b60405180910390fd5b606482106101235760405162461bcd60e51b815260206004820152600f60248201526e59206f7574206f6620626f756e647360881b60448201526064016100d8565b600082610131856064610268565b61013b9190610285565b60008181526020819052604090206001015490915043900361019657807f7b6ab955f24c15a7bef74b0cb97e574ee173561d47cd253865f8323fe4bc99e94360405161018991815260200190565b60405180910390a26101cf565b60405160ff8316815281907f98bf954f787db85344975f373cacf560c479c10300d8c9d3578e95fa872cefeb9060200160405180910390a25b6000908152602081905260409020805460ff191660ff92909216919091178155436001909101555050565b60006020828403121561020c57600080fd5b5035919050565b60008060006060848603121561022857600080fd5b8335925060208401359150604084013560ff8116811461024757600080fd5b809150509250925092565b634e487b7160e01b600052601160045260246000fd5b808202811582820484141761027f5761027f610252565b92915050565b8082018082111561027f5761027f61025256fea2646970667358221220d9ec0ee2565c27449e5cbebaefca9eb179ce15c215ec33403f521d7738a960e664736f6c634300081e0033",
  "devdoc": {
    "kind": "dev",
    "methods": {
      "drawPixel(uint256,uint256,uint8)": {
        "params": {
          "_color": "Color index (0-255)",
          "_x": "X coordinate (0-99)",
          "_y": "Y coordinate (0-99)"
        }
      }
    },
    "title": "Canvas",
    "version": 1
  },
  "userdoc": {
    "events": {
      "PixelUpdated(uint256,uint8)": {
        "notice": "Emitted when a pixel is drawn with no same-block contention."
      },
      "StateCollision(uint256,uint256)": {
        "notice": "Emitted when two transactions touch the same pixel in one block."
      }
    },
    "kind": "user",
    "methods": {
      "canvas(uint256)": {
        "notice": "1D mapping representing the 100x100 grid. pixelId = x*100 + y"
      },
      "drawPixel(uint256,uint256,uint8)": {
        "notice": "Paint a pixel on the canvas."
      }
    },
    "notice": "A collaborative 100x100 pixel canvas that demonstrates Monad's         Optimistic Parallel EVM by detecting same-block state collisions.",
    "version": 1
  },
  "storageLayout": {
    "storage": [
      {
        "astId": 13,
        "contract": "contracts/Canvas.sol:Canvas",
        "label": "canvas",
        "offset": 0,
        "slot": "0",
        "type": "t_mapping(t_uint256,t_struct(Pixel)7_storage)"
      }
    ],
    "types": {
      "t_mapping(t_uint256,t_struct(Pixel)7_storage)": {
        "encoding": "mapping",
        "key": "t_uint256",
        "label": "mapping(uint256 => struct Canvas.Pixel)",
        "numberOfBytes": "32",
        "value": "t_struct(Pixel)7_storage"
      },
      "t_struct(Pixel)7_storage": {
        "encoding": "inplace",
        "label": "struct Canvas.Pixel",
        "members": [
          {
            "astId": 4,
            "contract": "contracts/Canvas.sol:Canvas",
            "label": "color",
            "offset": 0,
            "slot": "0",
            "type": "t_uint8"
          },
          {
            "astId": 6,
            "contract": "contracts/Canvas.sol:Canvas",
            "label": "lastUpdateBlock",
            "offset": 0,
            "slot": "1",
            "type": "t_uint256"
          }
        ],
        "numberOfBytes": "64"
      },
      "t_uint256": {
        "encoding": "inplace",
        "label": "uint256",
        "numberOfBytes": "32"
      },
      "t_uint8": {
        "encoding": "inplace",
        "label": "uint8",
        "numberOfBytes": "1"
      }
    }
  }
}